:100000000C949F000C94C0000C94C0000C94C00091
:100010000C94C0000C94C0000C94C0000C94C00060
:100020000C94C0000C94C0000C94C0000C94C00050
:100030000C94C0000C94C0000C94C0000C94C00040
:100040000C94C0000C9493060C94C0000C94C00057
:100050000C9466060C94C0000C94C0000C94C00074
:100060000C94C0000C9452050C9474050C94A405D7
:100070000C94C0000C94F3080C94C0000C94C000C5
:100080000C94C0000C94C0000C94C0000C94C000F0
:100090000C9419040C943B040C9469040C94C00057
:1000A0000C94C0000C94C0000C94C0000C94C000D0
:1000B0000C94C0000C94C0000C94C0000C94C000C0
:1000C0000C94C0000C94C0000C94C0000C94C000B0
:1000D0000C94C0000C94C0000C94C0000C94C000A0
:1000E0000C94C000036EDB363D9A9999993DABAAFA
:1000F000AA2A3E000000803F072C7AA5BA6CC59062
:10010000DA3B9365FC8BBC53F810FD3C5692834D53
:10011000BD879D3AB63DCBC9BF5BBE73DA0FC93F01
:1001200005A84CCDB2D44EB93836A9020C50B991BD
:100130008688083CA6AAAA2ABE000000803F112497
:100140001FBECFEFD1E2DEBFCDBF00E00CBF12E09B
:10015000A0E0B2E0E6E0F3E200E00BBF02C00790EF
:100160000D92AA3EB107D9F71AE0AAEEB2E001C09B
:100170001D92A438B107E1F70E94AD010C948111E2
:100180000C940000FC01638170E06C5F7F4F0E9463
:10019000480680E090E00895CF93DF93C0E0D0E080
:1001A00001C021960E94FF058F5F9F4FD1F7CE01BE
:1001B000DF91CF910895BF92CF92DF92EF92FF929D
:1001C0000F931F93CF93DF936C01CB016AE070E034
:1001D0000E94400EEB0100E010E0EE24FF2485E3D6
:1001E000B82E19C00E94FF05BC018FEF6F3F780742
:1001F00061F0C601A8010E9404078C018FEF0F3F38
:10020000180749F421E030E00BC08B2D8A95F1F7F7
:100210000894E11CF11CCE15DF0524F720E030E046
:10022000C901DF91CF911F910F91FF90EF90DF9067
:10023000CF90BF900895FF920F931F93CF93DF93BA
:100240008C010E94FF05BC01C0E0D0E09AE6F92EC7
:1002500019C0C801AE010E940407EC018FEFCF3F27
:10026000D80719F421E030E013C00E94FF05BC015B
:100270008FEF6F3F780731F48F2D8A95F1F70E9449
:10028000FF05BC018FEF6F3F780719F720E030E0E2
:10029000C901DF91CF911F910F91FF900895FF92B7
:1002A0000F931F93CF93DF938C010E94B004BC0186
:1002B000C0E0D0E02AE6F22E19C0C801AE010E94CB
:1002C0000407EC018FEFCF3FD80719F421E030E0AD
:1002D00013C00E94B004BC018FEF6F3F780731F468
:1002E0008F2D8A95F1F70E94B004BC018FEF6F3F0C
:1002F000780719F720E030E0C901DF91CF911F9115
:100300000F91FF900895FC01638170E06C5F7F4F57
:100310000E94F90480E090E008958FEF87B988B9D2
:1003200040980E94910460E071EE80E090E00E94AD
:1003300073040E94DB0560E472E48FE090E00E94A9
:10034000BD050E94B6080E944C090E94C00686E5C1
:1003500093E00E94C806789408952F923F924F929E
:100360005F926F927F928F929F92AF92BF92CF9245
:10037000DF92EF92FF920F931F93DF93CF93CDB74E
:10038000DEB7C050D2400FB6F894DEBF0FBECDBF6F
:100390000E948D0100D00F9280E092E0EDB7FEB791
:1003A0009283818380E192E0948383830E94170586
:1003B0000F920F9281E292E0EDB7FEB792838183B4
:1003C00080E492E4AFE0B0E083839483A583B683B6
:1003D0000E94170528EE33E08DB79EB706960FB63C
:1003E000F8949EBF0FBE8DBF40E951E0CA0101974E
:1003F000F1F721503040D1F760E472E48FE090E0F3
:100400000E94730400D000D083E492E0EDB7FEB701
:100410009283818380E492E4AFE0B0E083839483AD
:10042000A583B6830E94170528EE33E08DB79EB7EB
:1004300006960FB6F8949EBF0FBE8DBF40E951E0FF
:10044000CA010197F1F721503040D1F782E692E0DE
:1004500068E070E00E94480600E41CE9C8010197CA
:10046000F1F70E94CC008BE692E068E070E00E9419
:100470004806C8010197F1F70E94CC004424552496
:10048000CC24DD247601AA24BB246624772400E052
:1004900010E051E0852E952E8C0E9D1E45E0242EF9
:1004A000312C280C391C0894C11CD11CE11CF11CF6
:1004B000C701B60128EE33E040E050E00E94530E41
:1004C0006115710581059105B1F4452851F0449AF3
:1004D00084E792E068E070E00E94480644245524D6
:1004E0000AC044988DE792E068E070E00E944806F8
:1004F00031E0432E512CCE0101960E944F01892BF1
:1005000009F456C041989B818091FF08981709F023
:1005100041C08D81823009F1833019F0813059F565
:1005200027C0DE01179621E030E00EC08E81E091F9
:100530008602F0918702E20FF31FE80FF11D319759
:100540008D9180832F5F3F4F8C8190E00297281719
:10055000390764F38091FF080CC08E8140918602B8
:1005600050918702480F511D892F60E02F8108C0EC
:10057000892F60E002C0892F61E040E050E020E078
:100580000E949307FC01638170E06C5F7F4F0E94C3
:10059000F9040DC06C8170E06C5F7F4FCE01019655
:1005A0000E9448068B818E3F11F001E010E0419AD5
:1005B0000115110509F065C042980894A11CB11CF1
:1005C0008091030990E0A816B90614F0AA24BB2470
:1005D000F501E450F74F8085682E772460915E091D
:1005E00040915F090E949508FC01638170E06C5F97
:1005F0007F4F0E944806429A44C00115110549F0F8
:10060000F401638170E06C5F7F4FC4010E94F904C4
:1006100038C0F401828190E08615970591F58481B8
:10062000882379F580915F09482F50E0838190E01D
:100630009A012E5F3F4F8217930719F543984F5F3A
:100640005F4FA49ED001A59EB00DB49EB00D1124A5
:10065000A05AB64F6C92B10140E050E008C09D0135
:10066000240F351FFB018191BF01F90180839A019D
:100670004F5F5F4F80915F0990E0281739077CF347
:10068000439AC4016CE271E00E94DB00892B09F0FF
:10069000B4CF0115110509F406CF0F5F1F4F0430C9
:1006A00011050CF400CF00E010E0FDCE0F931F9376
:1006B00078948091EA029091EB02A091EC02B091C3
:1006C000ED020196A11DB11D8093EA029093EB0209
:1006D000A093EC02B093ED028091EA029091EB02BC
:1006E000A091EC02B091ED0283709070A070B07098
:1006F0000097A105B10509F075C00E945809892B22
:1007000009F470C00E945C09FC018289938990936E
:100710004D0980934C098089918990934F0980936A
:100720004E09868597859093510980935009868953
:10073000978990935309809352098489958990935E
:100740005509809354098CEF90E09093570980935A
:10075000560982E599E04FE652E163E87CE30E94A6
:10076000740A8CE499E04FE652E163E87CE30E946E
:1007700077090E9474098C01FC016081718182817A
:10078000938120E030E040E854E40E94860D20E0B0
:1007900030E040E057E40E94300B0E941A0C709346
:1007A000590960935809F8016481758186819781A0
:1007B00020E030E040E854E40E94860D20E030E084
:1007C00040E057E40E94300B0E941A0C70935B09C2
:1007D00060935A0980E090E890935D0980935C09EA
:1007E0000E943E096091EA027091EB028091EC0256
:1007F0009091ED0229E130E040E050E00E94530E7C
:10080000611571058105910589F4489B04C010921A
:100810003C09439A04C081E080933C09439880914D
:100820001C09882311F0469801C0469A1F910F9128
:1008300008951F920F920FB60F920BB60F921124CC
:100840008F939F93EF93FF939091CE008091F30548
:10085000E2EFF5E0E80FF11D92838F5F8093F305DF
:10086000FF91EF919F918F910F900BBE0F900FBE54
:100870000F901F9018951F920F920FB60F920BB604
:100880000F9211248F939F93EF93FF939091F10414
:100890008091F004981769F08091F004E82FF0E05F
:1008A000E051FB4F92819093CE008F5F8093F004D4
:1008B00005C08091C9008F7D8093C900FF91EF91A1
:1008C0009F918F910F900BBE0F900FBE0F901F90B6
:1008D00018951F920F920FB60F9211240F900FBE12
:1008E0000F901F9018959B01AC0160E074E284EFBB
:1008F00090E00E94750E2C5F3F4F4F4F5F4FCA0133
:10090000B90128E030E040E050E00E94750E21502F
:100910003040ECECF0E03183208320813181C9014B
:1009200008951092F3058091F3058093F2051092DB
:10093000F1048091F1048093F00482E48093C80074
:1009400088E98093C90086E08093CA0060E071EE78
:1009500080E090E00E9473048FEF8093CE000895B2
:100960009091F3058091F205981719F42FEF3FEF5E
:100970000CC08091F205E82FF0E0EE50FA4F928122
:10098000292F30E08F5F8093F205C9010895282F49
:100990008091F104E0EFF4E0E80FF11D22838F5F16
:1009A0008093F104E9ECF0E080818062808333275A
:1009B00027FD3095C9010895BC0120E030E00CC04E
:1009C0008091F104E82FF0E0E051FB4F42838F5F0C
:1009D0008093F1042F5F3F4FFB01E20FF31F408133
:1009E000442371F78091C90080628093C900C901D6
:1009F0000895AC0120E030E010C08091F104E82FB0
:100A0000F0E0DA01A20FB31F9C91E051FB4F9283FB
:100A10008F5F8093F1042F5F3F4F261737076CF3EA
:100A20008091C90080628093C900C90108950F9325
:100A30001F93DF93CF93CDB7DEB7EC970FB6F89443
:100A4000DEBF0FBECDBFFE01EC5BFF4F4191519168
:100A50008E010F5F1F4FC8016CE370E09F010E9481
:100A6000A40E382FD8010AC08091F104E82FF0E0DD
:100A7000E051FB4F22838F5F8093F1042D9122235D
:100A800099F78091C90080628093C900832FEC960A
:100A90000FB6F894DEBF0FBECDBFCF91DF911F918F
:100AA0000F9108951F920F920FB60F920BB60F92EF
:100AB00011248F939F93EF93FF939091C6008091A1
:100AC000F506E4EFF6E0E80FF11D92838F5F809367
:100AD000F506FF91EF919F918F910F900BBE0F90B4
:100AE0000FBE0F901F9018951F920F920FB60F9286
:100AF0000BB60F9211248F939F93EF93FF939091D6
:100B0000F7078091F607981779F07398729A809199
:100B1000F607E82FF0E0EA50F84F92819093C60074
:100B20008F5F8093F60705C08091C1008F7D809311
:100B3000C100FF91EF919F918F910F900BBE0F908D
:100B40000FBE0F901F9018951F920F920FB60F9225
:100B500011248F939F939091F7078091F607981730
:100B600029F480E18A95F1F77298739A9F918F9199
:100B70000F900FBE0F901F9018959B01AC0160E085
:100B800074E284EF90E00E94750E2C5F3F4F4F4F50
:100B90005F4FCA01B90128E030E040E050E00E9418
:100BA000750E21503040E4ECF0E031832083208149
:100BB0003181C90108951092F5068091F506809360
:100BC000F4061092F7078091F7078093F60782E406
:100BD0008093C00088ED8093C10086E08093C200BE
:100BE00060E472E48FE090E00E94BD058FEF809397
:100BF000C6008DB18C608DB97298739A08959091EA
:100C0000F5068091F406981719F42FEF3FEF0CC00A
:100C10008091F406E82FF0E0EC50F94F9281292FF3
:100C200030E08F5F8093F406C9010895282F8091EA
:100C3000F707E6EFF7E0E80FF11D22838F5F80935F
:100C4000F707E1ECF0E0808180628083332727FDA5
:100C50003095C9010895BC0120E030E00CC08091BE
:100C6000F707E82FF0E0EA50F84F42838F5F809358
:100C7000F7072F5F3F4FFB01E20FF31F4081442333
:100C800071F78091C10080628093C100C90108950D
:100C9000AC0120E030E010C08091F707E82FF0E0D1
:100CA000DA01A20FB31F9C91EA50F84F92838F5F35
:100CB0008093F7072F5F3F4F261737076CF380911C
:100CC000C10080628093C100C90108951F920F92F4
:100CD0000FB60F920BB60F9211242F933F934F93A1
:100CE0005F936F937F938F939F93AF93BF93EF9394
:100CF000FF93E091FA08F091FB08309709F01995FD
:100D0000FF91EF91BF91AF919F918F917F916F91E3
:100D10005F914F913F912F910F900BBE0F900FBE9F
:100D20000F901F9018951F920F920FB60F920BB64F
:100D30000F9211242F933F934F935F936F937F9361
:100D40008F939F93AF93BF93EF93FF93E091F80836
:100D5000F091F908309709F01995FF91EF91BF9143
:100D6000AF919F918F917F916F915F914F913F9143
:100D70002F910F900BBE0F900FBE0F901F901895E4
:100D800081E0809381001092850010928400089584
:100D90009093FB088093FA08892B21F080916F00D3
:100DA000816003C080916F008E7F80936F001092EE
:100DB00085001092840008959093F9088093F808B4
:100DC000892B21F080916F00826003C080916F00B9
:100DD0008D7F80936F000895DC0113968C9113979B
:100DE000482F50E04E5F5F4F90E022E030E0FD0181
:100DF000E20FF31F8081980F2F5F3F4F4217530779
:100E0000B4F7892F80950895DC019A0157FF02C03D
:100E100020E030E0FD01E20FF31F60832230310556
:100E200014F46F3F41F513968C911397E82FF0E07F
:100E3000AF014D5F5F4F24173507B9F422E030E072
:100E400090E0AF014E5F5F4F07C0FD01E20FF31F5F
:100E50008081980F2F5F3F4F42175307B4F790954B
:100E6000691749F42FEF3FEF08C0421753071CF0F2
:100E70002F5F3F4F02C020E030E0C9010895CF93BB
:100E8000DF939FEF9093EE039093EF038093F00333
:100E9000722F7E5F7093F1036093F203842F952F7E
:100EA000EC01E3EFF3E0A22FB0E09D012E0F3F1F16
:100EB00002C089918193E217F307D9F742E050E02D
:100EC00090E0272F30E02E5F3F4F07C0FA01E2513C
:100ED000FC4F8081980F4F5F5F4F24173507B4F7A1
:100EE000892F80958093ED04A251BC4F15968C9369
:100EF0008EEE93E0DF91CF9108958EEF65E040E0B4
:100F000050E020E00E943F07089561E040E050E09B
:100F100020E00E943F07089566E040E050E020E0B6
:100F20000E943F070895CF93DF939FEF9093EE02C7
:100F30009093EF028093F002722F7E5F7093F10224
:100F40006093F202842F952FEC01E3EFF2E0A22FE1
:100F5000B0E09D012E0F3F1F02C089918193E217DF
:100F6000F307D9F742E050E090E0272F30E02E5F02
:100F70003F4F07C0FA01E251FD4F8081980F4F5F4C
:100F80005F4F24173507B4F7892F80958093ED03C1
:100F9000A251BD4F15968C938EEE92E0DF91CF91CA
:100FA0000895EF92FF920F931F93DF93CF93CDB7E6
:100FB000DEB78A01EDB6FEB6922F9E5F4DB75EB7E3
:100FC000491B51090FB6F8945EBF0FBE4DBF4F5F6E
:100FD0005F4FEDB7FEB78183FA016183DA0160E00C
:100FE00070E030E009C0F801E60FF71F808111962C
:100FF0008C9311976F5F7F4F1196621773079CF365
:101000008EEF63E8292F0E943F070FB6F894FEBECB
:101010000FBEEDBECF91DF911F910F91FF90EF902A
:101020000895DF92EF92FF920F931F93DF93CF9378
:10103000CDB7DEB7D82EEDB6FEB6722F7F5F8DB777
:101040009EB7871B91090FB6F8949EBF0FBE8DBF48
:101050000DB71EB70F5F1F4FEDB7FEB76183842F2B
:10106000952FDC0140E050E030E007C04F5F5F4F5C
:10107000F801E40FF51F8D91808342175307B4F3F5
:101080008D2D64E0A801272F0E943F070FB6F8942A
:10109000FEBE0FBEEDBECF91DF911F910F91FF906D
:1010A000EF90DF900895DF92EF92FF920F931F93DE
:1010B000DF93CF93CDB7DEB7D82EEDB6FEB6722F45
:1010C0007F5F8DB79EB7871B91090FB6F8949EBFBF
:1010D0000FBE8DBF0DB71EB70F5F1F4FEDB7FEB729
:1010E0006183842F952FDC0140E050E030E007C0A1
:1010F0004F5F5F4FF801E40FF51F8D91808342171A
:101100005307B4F38D2D63E0A801272F0E943F07FA
:101110000FB6F894FEBE0FBEEDBECF91DF911F91CA
:101120000F91FF90EF90DF9008950F931F93DF933F
:10113000CF93CDB7DEB70DB71EB70F920F92EDB7B5
:10114000FEB73196ADB7BEB711966C93418362E09E
:10115000AF0122E00E943F070FB6F8941EBF0FBEFA
:101160000DBFCF91DF911F910F9108951092FD084F
:101170001092FC0881E08093FE0880E88093FF08CD
:1011800010921C0988E180930309E4E0F9E080E013
:1011900081938F5F8831E1F784E280935E0982E07A
:1011A00080935F0908950895982F883050F48091B6
:1011B0007C00807E892B80937C0080917B00877FE0
:1011C0000AC080917C009850807E892B80937C009F
:1011D00080917B00886080937B0080917A0080649E
:1011E00080937A0008951F920F920FB60F920BB65C
:1011F0000F9211242F933F934F935F936F937F939D
:101200008F939F93AF93BF93EF93FF932091EF043E
:101210008091780090917900E22FF0E0EE0FFF1FAF
:10122000E05CF54F918380832F5F2093EF048091E2
:101230008902821768F480917A00877F80937A0010
:1012400081E08093EE04809188028093EF0403C0D4
:10125000822F0E94D408FF91EF91BF91AF919F918F
:101260008F917F916F915F914F913F912F910F904F
:101270000BBE0F900FBE0F901F9018951092EE04AA
:10128000809188028093EF04EAE7F0E09081986013
:1012900090830E94D4080895EAE7F0E087E0808315
:1012A00010927C008081806C80830E943E090895AA
:1012B0008091EE0490E0089580E49AE00895909182
:1012C0007C00907E982B90937C0080917A008064C3
:1012D00080937A0080917A0086FDFCCF209178007F
:1012E00030917900C90108958CE69AE008952F9213
:1012F0003F924F925F926F927F928F929F92AF92A6
:10130000BF92CF92DF92EF92FF920F931F93CF93F2
:10131000DF933A014B015C010F2EF0E0CF2EF0E09D
:10132000DF2EF0E0EF2EF0E0FF2EF02DC0E0D0E059
:101330008E0106541D4FF501619171915F0180E0AE
:1013400090E00E94460CFE01E255FD4F2081318164
:10135000428153810E942F0BF8012081318142810B
:1013600053810E94860D9B01AC01FE01E05AF54FAE
:1013700060837183828393830E94860D9B01AC01FD
:10138000C701B6010E94300B6B017C012496CC3062
:10139000D10571F60E94ED0D7B018C012091DE02DA
:1013A0003091DF024091E0025091E1020E94AB0BCC
:1013B00087FD84C0C801B7012091E2023091E302A9
:1013C0004091E4025091E5020E94820D18160CF43F
:1013D00075C06091600A7091610A8091620A909173
:1013E000630AA80197010E94B20B0E94940B5B0153
:1013F0006C016091640A7091650A8091660A90910F
:10140000670AA80197010E94B20B0E94940B1B016E
:101410002C01C401B3012091E6023091E702409112
:10142000E8025091E9020E94B20B3B014C01E090AE
:101430006C0AF0906D0A00916E0A10916F0AC60155
:10144000B501A80197010E942F0B9B01AC01C401BB
:10145000B3010E94860D9B01AC01C801B7010E9437
:10146000300B60936C0A70936D0A80936E0A9093B0
:101470006F0AE090700AF090710A0091720A109160
:10148000730AC201B101A80197010E942F0B9B01B1
:10149000AC01C401B3010E94860D9B01AC01C801DF
:1014A000B7010E94300B6093700A7093710A8093A9
:1014B000720A9093730A20E030E002C02FEF3FEFF2
:1014C000C901DF91CF911F910F91FF90EF90DF90B5
:1014D000CF90BF90AF909F908F907F906F905F90D4
:1014E0004F903F902F9008954F925F926F927F920E
:1014F0008F929F92AF92BF92CF92DF92EF92FF9224
:101500000F931F93DF93CF9300D00F92CDB7DEB729
:101510008C0149835A836B837C83FC0160817181D8
:1015200080E090E00E94460C2091C6023091C702F4
:101530004091C8025091C9020E942F0B2091D20203
:101540003091D3024091D4025091D5020E94860D71
:101550006B017C016093780A7093790A80937A0A10
:1015600090937B0AF8016281738180E090E00E9491
:10157000460C2091CA023091CB024091CC0250918E
:10158000CD020E942F0B2091D6023091D7024091BC
:10159000D8025091D9020E94860D4B015C016093E4
:1015A0007C0A70937D0A80937E0A90937F0A409014
:1015B000700A5090710A6090720A7090730AC301A9
:1015C000B2010E94AF0B00E71AE0A70196010E944A
:1015D000860D29813A814B815C810E94860DF8013C
:1015E00052914291329122918F010E94300B9B01C6
:1015F000AC01F80120833183428353830E94AF0BF7
:10160000A50194010E94860D29813A814B815C815C
:101610000E94860D9B01AC01C301B2010E94300BF8
:101620006093700A7093710A8093720A9093730AA0
:1016300080E090E00F900F900F900F90CF91DF918E
:101640001F910F91FF90EF90DF90CF90BF90AF90E0
:101650009F908F907F906F905F904F90089550581B
:10166000BB27AA270ED003C2CCD130F0D1D120F0B5
:1016700031F49F3F11F41EF48BC10EF4E095E7FBAB
:1016800081C1E92F16D280F3BA1762077307840766
:10169000950718F071F49EF52EC20EF4E0950B2E0E
:1016A000BA2FA02D0B01B90190010C01CA01A001B4
:1016B0001124FF27591B99F0593F50F4503E68F10F
:1016C0001A16F040A22F232F342F4427585FF3CF50
:1016D000469537952795A795F0405395C9F77EF421
:1016E0001F16BA0B620B730B840BBAF09150A1F06A
:1016F000FF0FBB1F661F771F881FC2F70EC0BA0FF0
:10170000621F731F841F48F4879577956795B79577
:10171000F7959E3F08F0B3CF9395880F08F099276F
:10172000EE0F9795879508959F939F77EEE38937FE
:101730009E0720F4E4EEF0E053D109C0E4D09058C5
:10174000A2EA2AED3FE049EC5FE39BDF90D10F90E6
:1017500007FC90580895F2D008F481E0089560D114
:10176000E39596C10CD083C153D140F04AD130F0FB
:1017700021F45F3F19F006C15111BEC109C199D1D1
:1017800098F39923C9F35523B1F3951B550BBB2748
:10179000AA2762177307840738F09F5F5F4F220FF5
:1017A000331F441FAA1FA9F333D00E2E3AF0E0E8EE
:1017B00030D091505040E695001CCAF729D0FE2F3A
:1017C00027D0660F771F881FBB1F261737074807CC
:1017D000AB07B0E809F0BB0B802DBF01FF27935882
:1017E0005F4F2AF09E3F510568F0CCC085C15F3F36
:1017F000ECF3983EDCF3869577956795B795F7956A
:101800009F5FC9F7880F911D9695879597F9089561
:10181000E1E0660F771F881FBB1F621773078407FD
:10182000BA0720F0621B730B840BBA0BEE1F88F70C
:10183000E095089546D188F09F5790F0B92F9927E9
:10184000B751A0F0D1F0660F771F881F991F1AF0CB
:10185000BA95C9F712C0B13081F04DD1B1E0089509
:101860004AC1672F782F8827B85F39F0B93FCCF38A
:10187000869577956795B395D9F73EF490958095C1
:10188000709561957F4F8F4F9F4F0895E89409C0E1
:1018900097FB3EF490958095709561957F4F8F4FA3
:1018A0009F4F9923A9F0F92F96E9BB279395F695B9
:1018B000879577956795B795F111F8CFFAF4BB0F37
:1018C00011F460FF1BC06F5F7F4F8F4F9F4F16C09B
:1018D000882311F096E911C0772321F09EE8872F25
:1018E000762F05C0662371F096E8862F70E060E0E1
:1018F0002AF09A95660F771F881FDAF7880F96955A
:10190000879597F90895DF93CF931F930F938B01DA
:10191000EC01E8EFF0E03FD0AAD09801AE018B01D6
:10192000EC0160E070E080E89FE399DE56D1980119
:10193000AE010F911F91CF91DF91F4C0990F000874
:10194000550FAA0BE0E8FEEF16161706E807F90791
:10195000C0F012161306E407F50798F0621B730B2C
:10196000840B950B39F40A2661F0232B242B252BAD
:1019700021F408950A2609F4A140A6958FEF811D50
:10198000811D089597F99F6780E870E060E00895F1
:101990009FEF80EC0895DF93CF931F930F93FF92F7
:1019A000EF92DF927B018C01689405C0DA2EEF0183
:1019B000B9D0FE01E894A5912591359145915591B5
:1019C000AEF3EF015EDEFE019701A801DA9479F72C
:1019D000DF90EF90FF900F911F91CF91DF910895CD
:1019E0009F938F937F936F93FF93EF939B01AC0132
:1019F0008DD0EF91FF91CFDF2F913F914F915F916C
:101A000085C000240A9416161706180609060895BC
:101A100000240A9412161306140605060895B8CF7A
:101A200050D0E8F3E894E0E0BB279F57F0F02AEDB0
:101A30003FE049EC06C0EE0FBB0F661F771F881F03
:101A400028F0B23A62077307840728F0B25A620B93
:101A5000730B840BE3959A9572F7803830F49A955E
:101A6000BB0F661F771F881FD2F79048F6C0092E5C
:101A70000394000C11F4882352F0BB0F40F4BF2BE9
:101A800011F460FF04C06F5F7F4F8F4F9F4F089529
:101A9000EF93E0FF06C0A2EA2AED3FE049EC5FEBDE
:101AA000F0DDE5DF0F90039401FC9058E0E2F1E0F7
:101AB00097CF57FD9058440F551F59F05F3F71F075
:101AC0004795880F97FB991F61F09F3F79F08795A5
:101AD0000895121613061406551FF2CF4695F1DF2E
:101AE00008C0161617061806991FF1CF86957105BE
:101AF000610508940895E894BB2766277727CB01F2
:101B000097F908951BDF08F48FEF08950BD0AFCF3E
:101B100078DF28F07DDF18F0952309F033CF38CF38
:101B20001124EACFC6DFA0F3959FD1F3950F50E0C3
:101B3000551F629FF001729FBB27F00DB11D639F7F
:101B4000AA27F00DB11DAA1F649F6627B00DA11D25
:101B5000661F829F2227B00DA11D621F739FB00DCB
:101B6000A11D621F839FA00D611D221F749F33273B
:101B7000A00D611D231F849F600D211D822F762FD4
:101B80006A2F11249F5750408AF0E1F088234AF0D1
:101B9000EE0FFF1FBB1F661F771F881F915050401D
:101BA000A9F79E3F510570F0EDCEA6CF5F3FECF355
:101BB000983EDCF3869577956795B795F795E79509
:101BC0009F5FC1F7FE2B880F911D9695879597F91A
:101BD000089511F40EF4DCCE3EC073DFD0F39923E8
:101BE000D9F3CEF39F57550B87FF43D00024A0E6CF
:101BF00040EA900180585695979528F4805C660FCE
:101C0000771F881F20F026173707480730F4621B1C
:101C1000730B840B202931294A2BA695179407941E
:101C2000202531254A2758F7660F771F881F20F097
:101C300026173707480730F4620B730B840B200D0F
:101C4000311D411DA09581F7B901842F9158880F4E
:101C50009695879508959F3F31F0915020F4879590
:101C600077956795B795880F911D9695879597F904
:101C7000089591505040660F771F881FD2F708953E
:101C800097FB092E07260AD077FD04D049D006D04D
:101C900000201AF4709561957F4F0895F6F790959E
:101CA00081959F4F0895A1E21A2EAA1BBB1BFD012F
:101CB0000DC0AA1FBB1FEE1FFF1FA217B307E4072B
:101CC000F50720F0A21BB30BE40BF50B661F771F83
:101CD000881F991F1A9469F7609570958095909563
:101CE0009B01AC01BD01CF01089597FB092E05268C
:101CF0000ED057FD04D0D7DF0AD0001C38F4509521
:101D00004095309521953F4F4F4F5F4F0895F6F71F
:101D100090958095709561957F4F8F4F9F4F089557
:101D2000AA1BBB1B51E107C0AA1FBB1FA617B70701
:101D300010F0A61BB70B881F991F5A95A9F780951D
:101D40009095BC01CD0108950F931F93DF93CF931E
:101D5000CDB7DEB72E970FB6F894DEBF0FBECDBF5E
:101D60008C0177FF02C060E070E8615070407E83B4
:101D70006D831A83098386E08C83CE010196BA01B4
:101D8000A9010E94DB0E2D813E8137FD09C0EF8144
:101D9000F8852E173F070CF4F901E00FF11F1082B0
:101DA0002E960FB6F894DEBF0FBECDBFCF91DF9158
:101DB0001F910F9108952F923F924F925F926F92D1
:101DC0007F928F929F92AF92BF92CF92DF92EF92CB
:101DD000FF920F931F93DF93CF93CDB7DEB72B976F
:101DE0000FB6F894DEBF0FBECDBF3C012B015A01E8
:101DF000FC0117821682838181FD03C06FEF7FEFA4
:101E0000C6C19AE0892E1E010894211C311CF301E1
:101E10002381F20123FD859123FF81912F018823E6
:101E200009F4B2C1853239F423FD859123FF8191F4
:101E30002F01853229F490E0B3010E94F710E7CF1B
:101E4000982FFF24EE249924FFE1FF15D0F09B3258
:101E500069F09C3228F4903259F0933291F40EC01C
:101E60009D3249F0903369F441E024C052E0F52AF4
:101E700084E0F82A28C098E0F92A25C0E0E1FE2A8B
:101E800022C0F7FC29C0892F80538A3070F4F6FEF7
:101E900005C0989C902C1124980E15C0E89CE02C4D
:101EA0001124E80EF0E2FF2A0EC09E3229F4F6FC5F
:101EB0006BC140E4F42A07C09C3619F450E8F52AB7
:101EC00002C0983649F4F20123FD959123FF9191C8
:101ED0002F01992309F0B8CF892F8554833018F04A
:101EE0008052833038F444E050E0A40EB51E5FE326
:101EF00059830FC0933631F0933779F0933509F059
:101F000056C020C0F5018081898342E050E0A40ED4
:101F1000B51E610101E010E012C0F501C080D18062
:101F2000F6FC03C06FEF7FEF02C0692D70E042E066
:101F300050E0A40EB51EC6010E94EC108C015FE7B4
:101F4000F52214C0F501C080D180F6FC03C06FEF0C
:101F50007FEF02C0692D70E042E050E0A40EB51E94
:101F6000C6010E94E1108C0150E8F52AF3FE07C07B
:101F70001AC080E290E0B3010E94F710EA948E2D1F
:101F800090E008171907A8F30EC0F601F7FC859139
:101F9000F7FE81916F0190E0B3010E94F710E1100C
:101FA000EA94015010400115110579F7EAC0943602
:101FB00011F0993669F5F7FE08C0F50120813181ED
:101FC0004281538184E090E00AC0F50180819181D3
:101FD0009C01442737FD4095542F82E090E0A80EE5
:101FE000B91E9FE6F92257FF09C0509540953095DC
:101FF00021953F4F4F4F5F4FE0E8FE2ACA01B901DC
:10200000A1012AE030E00E942311D82ED21840C04E
:10201000953729F41F2D1F7E2AE030E01DC01F2DAB
:10202000197F9F3661F0903720F4983509F0ACC0E5
:102030000FC0903739F0983709F0A6C004C028E0E7
:1020400030E00AC0106114FD146020E130E004C0EB
:1020500014FD166020E132E017FF08C0F501608131
:1020600071818281938144E050E008C0F501808154
:102070009181BC0180E090E042E050E0A40EB51EEA
:10208000A1010E942311D82ED2188FE7F82EF12239
:10209000F6FE0BC05EEFF522D91438F4F4FE07C04B
:1020A000F2FC05C08FEEF82202C01D2D01C0192DD3
:1020B000F4FE0DC0FE01ED0DF11D8081803319F499
:1020C00099EEF92208C01F5FF2FE05C003C08F2DF4
:1020D000867809F01F5F0F2DF3FC14C0F0FE0FC0CF
:1020E0001E1510F09D2C0BC09D2C9E0C911A1E2DC0
:1020F00006C080E290E0B3010E94F7101F5F1E153A
:10210000C0F304C01E1510F4E11A01C0EE2404FF50
:102110000FC080E390E0B3010E94F71002FF1DC0E2
:1021200001FD03C088E790E00EC088E590E00BC099
:10213000802F867891F001FF02C08BE201C080E21F
:10214000F7FC8DE290E0B3010E94F71006C080E337
:1021500090E0B3010E94F7109A94D914C0F3DA9476
:10216000F101ED0DF11D808190E0B3010E94F710A7
:10217000DD20A9F706C080E290E0B3010E94F710CD
:10218000EA94EE20C1F743CEF30166817781CB015B
:102190002B960FB6F894DEBF0FBECDBFCF91DF9167
:1021A0001F910F91FF90EF90DF90CF90BF90AF9075
:1021B0009F908F907F906F905F904F903F902F9067
:1021C0000895FC010590615070400110D8F780958A
:1021D00090958E0F9F1F0895FC01615070400190F3
:1021E0000110D8F7809590958E0F9F1F08950F933B
:1021F0001F93CF93DF938C01EB018B8181FF1BC079
:1022000082FF0DC02E813F818C819D812817390767
:1022100064F4E881F9810193F983E88306C0E885D5
:10222000F985802F1995892B31F48E819F81019634
:102230009F838E8302C00FEF1FEFC801DF91CF9104
:102240001F910F910895FA01AA27283051F12031EA
:1022500081F1E8946F936E7F6E5F7F4F8F4F9F4F3A
:10226000AF4FB1E03ED0B4E03CD0670F781F891F7C
:102270009A1FA11D680F791F8A1F911DA11D6A0F4A
:10228000711D811D911DA11D20D009F468943F91FD
:102290002AE0269F11243019305D3193DEF6CF01FC
:1022A0000895462F4770405D4193B3E00FD0C9F7C2
:1022B000F6CF462F4F70405D4A3318F0495D31FD2F
:1022C0004052419302D0A9F7EACFB4E0A695979582
:1022D000879577956795BA95C9F700976105710558
:1022E00008959B01AC010A2E0694579547953795A2
:1022F0002795BA95C9F7620F731F841F951FA01DFC
:062300000895F894FFCFE0
:102306000D0A5374617274696E672025730D0A0095
:10231600434D37323020636F6E74726F6C6C65722A
:1023260000537769746368696E67207365726961C3
:102336006C20746F20256C7520626175642E2E2EBC
:102346000D0A000D0A52756E6E696E67207365720E
:1023560069616C20617420256C7520626175640D5D
:102366000A00FFFFFE04030500F500FFFFFE04035D
:102376002F01CA00FFFFFE04031900E100FFFFFE64
:1023860004031901E000FC08070B0000803F000071
:10239600000000000000000000000000803F000078
:1023A600000000000000000000000000803F0080E8
:1023B600A8430080A8430080A8439696163E9696AA
:1023C600163E9696163E00007C4300007C430000B5
:1023D6007C439A83D13C9A83D1BC9A83D13C00003A
:0A23E6000041000040410000803F6C
:00000001FF
