:100000000C9466000C9487000C9487000C94870075
:100010000C9487000C9487000C9487000C94870044
:100020000C9487000C9487000C9487000C94870034
:100030000C9487000C9487000C9487000C94870024
:100040000C9487000C94CC040C9487000C948700CB
:100050000C949F040C9487000C9487000C948700E8
:100060000C9487000C9496030C94B8030C94E90349
:100070000C9487000C9487000C9487000C948700E4
:100080000C9487000C9487000C9487000C948700D4
:100090000C9466020C948A020C94B8020C948700AB
:1000A0000C9487000C9487000C9487000C948700B4
:1000B0000C9487000C9487000C9487000C948700A4
:1000C0000C9487000C9487000C94870011241FBEA9
:1000D000CFEFD1E2DEBFCDBF00E00CBF12E0A0E069
:1000E000B2E0E8EDF3E100E00BBF02C007900D9233
:1000F000A837B107D9F719E0A8E7B2E001C01D920F
:10010000A23CB107E1F70E9442010C94EA090C9469
:1001100000008091780290917902A0917A02B091CA
:100120007B020196A11DB11D809378029093790204
:10013000A0937A02B0937B02489B04C0109290086F
:10014000439A04C081E080939008439880918E0880
:10015000882311F0469801C0469A60917802709108
:10016000790280917A0290917B022EE130E040E0AA
:1001700050E00E94D0066115710581059105C1F41A
:1001800080917C02882351F010927C0280E092E002
:1001900068E070E00E948104449A089581E08093B1
:1001A0007C0289E092E068E070E00E94810444985B
:1001B0000895FC01638170E06C5F7F4F0E944803EB
:1001C00081E090E00895CF92DF92EF92FF920F933B
:1001D0001F93CF93DF93FC017B01638170E06C5F21
:1001E0007F4F0E94810400E010E0C0E0D0E080EA90
:1001F000C82E8FE0D82EC6010197F1F70E9438046F
:10020000BC018FEF6F3F780761F0C701AE010E941C
:100210000C05EC018FEFCF3FD80719F421E030E057
:1002200007C00F5F1F4F0436110529F720E030E0AB
:10023000C901DF91CF911F910F91FF90EF90DF9057
:10024000CF9008958FEF87B988B940980E94E00257
:1002500060E071EE80E090E00E94C2020E9414040F
:1002600060E472E48FE090E00E94F6030E94AF0623
:100270000E948F060E94D70489E890E00E94E4045F
:10028000789408952F923F924F925F926F927F924F
:100290008F929F92AF92BF92CF92DF92EF92FF9296
:1002A0000F931F93DF93CF93CDB7DEB7C050D240EB
:1002B0000FB6F894DEBF0FBECDBF0E94220182E1CF
:1002C00092E00E942B038DE392E00E942B0388EEC4
:1002D00093E020E931E0F9013197F1F70197D9F77F
:1002E00060E472E48FE090E00E94C2028CE592E04C
:1002F0000E942B0300E010E06624772488249924D0
:10030000AA24BB24EE24FF241E010894211C311CC6
:1003100031E0C32ED32ECC0EDD1E25E0422E512C13
:100320004C0C5D1C5DC0C101A4010E940C054C0178
:100330008FEF88168FEF980609F052C09B8180914D
:100340008A08981759F06C8170E06C5F7F4FC1018B
:100350000E94810491E0E92EF12C42C045988D81E4
:10036000823009F1833019F0813059F527C0DE0160
:10037000179621E030E00EC08E81E0917602F09178
:100380007702E20FF31FE80FF11D31978D91808303
:100390002F5F3F4F8C8190E002972817390764F355
:1003A00080918A080CC08E8140917602509177022C
:1003B000480F511D892F60E02F8108C0892F60E010
:1003C00002C0892F61E040E050E020E00E947D05FE
:1003D000FC01638170E06C5F7F4F0E944803459A87
:1003E0000E94FF02BC01EFEF8F3F9E0709F09BCFF9
:1003F000E114F10409F061C00F5F1F4F8091A7085D
:1004000090E00817190714F000E010E0F801E95730
:10041000F74F81A1682E77246091C0084091C108F0
:100420000E946E06FC01638170E06C5F7F4F0E944A
:10043000810480ED97E00197F1F73FC0C601A50167
:100440000E940C055C01FFEF8F3F9F07B1F54698B6
:10045000EF2849F0F601638170E06C5F7F4FC601C1
:100460000E94480327C0F601828190E08615970517
:1004700009F58091C108482F50E0838190E09A01EE
:100480002E5F3F4F82179307A9F4D201049FF0011A
:10049000059FF00D149FF00D1124EE53F74F9A01B4
:1004A0002B5F3F4F2C0D3D1D02C08D918193A217F4
:1004B000B307D9F7469AEE24FF240E943804BC0102
:1004C000FFEF8F3F9F0709F48BCFB8CF1F920F929A
:1004D0000FB60F920BB60F9211248F939F93EF9349
:1004E000FF9341989091CE0080918005EFE7F5E071
:1004F000E80FF11D92838F5F80938005419AFF91F1
:10050000EF919F918F910F900BBE0F900FBE0F90A8
:100510001F9018951F920F920FB60F920BB60F9265
:1005200011248F939F93EF93FF9390917E0480917A
:100530007D04981769F080917D04E82FF0E0E3587E
:10054000FB4F92819093CE008F5F80937D0405C016
:100550008091C9008F7D8093C900FF91EF919F9199
:100560008F910F900BBE0F900FBE0F901F9018959C
:100570001F920F920FB60F9211240F900FBE0F9083
:100580001F9018959B01AC0160E074E284EF90E04D
:100590000E94F2062C5F3F4F4F4F5F4FCA01B901D7
:1005A00028E030E040E050E00E94F2062150304068
:1005B000ECECF0E03183208320813181C901089582
:1005C000109280058091800580937F0510927E04B3
:1005D00080917E0480937D0482E48093C80088E942
:1005E0008093C90086E08093CA0060E071EE80E0ED
:1005F00090E00E94C2028FEF8093CE000895909108
:10060000800580917F05981719F42FEF3FEF0CC0FC
:1006100080917F05E82FF0E0E158FA4F9281292F71
:1006200030E08F5F80937F05C9010895282F809166
:100630007E04EDE7F4E0E80FF11D22838F5F8093E5
:100640007E04E9ECF0E0808180628083332727FD1F
:100650003095C9010895BC0120E030E00CC08091C4
:100660007E04E82FF0E0E358FB4F42838F5F8093D6
:100670007E042F5F3F4FFB01E20FF31F40814423B5
:1006800071F78091C90080628093C900C901089503
:10069000AC0120E030E010C080917E04E82FF0E053
:1006A000DA01A20FB31F9C91E358FB4F92838F5F37
:1006B00080937E042F5F3F4F261737076CF380919E
:1006C000C90080628093C900C9010895EF92FF922A
:1006D0000F931F93DF93CF93CDB7DEB7EC970FB691
:1006E000F894DEBF0FBECDBFFE01EA5BFF4F419124
:1006F00051918E010F5F1F4FC8016CE370E09F01A5
:100700000E940D07F82EE92EC8010E942B038F2DA1
:100710009E2DEC960FB6F894DEBF0FBECDBFCF91E5
:10072000DF911F910F91FF90EF9008951F920F920C
:100730000FB60F920BB60F9211248F939F93EF93E6
:10074000FF939091C60080918206E1E8F6E0E80F01
:10075000F11D92838F5F80938206FF91EF919F91AD
:100760008F910F900BBE0F900FBE0F901F9018959A
:100770001F920F920FB60F920BB60F9211248F9308
:100780009F93EF93FF93909184078091830798172D
:1007900081F042987398729A80918307E82FF0E075
:1007A000ED57F84F92819093C6008F5F8093830737
:1007B00005C08091C1008F7D8093C100FF91EF91B2
:1007C0009F918F910F900BBE0F900FBE0F901F90B7
:1007D00018951F920F920FB60F9211247298739A68
:1007E000429A0F900FBE0F901F9018959B01AC017D
:1007F00060E074E284EF90E00E94F2062C5F3F4FCD
:100800004F4F5F4FCA01B90128E030E040E050E0AF
:100810000E94F20621503040E4ECF0E03183208366
:1008200020813181C901089510928206809182064B
:1008300080938106109284078091840780938307B8
:1008400082E48093C00088ED8093C10086E08093AD
:10085000C20060E472E48FE090E00E94F6038FEF44
:100860008093C6008DB18C608DB97298739A08958B
:100870009091820680918106981719F42FEF3FEF2F
:100880000CC080918106E82FF0E0EF57F94F92817C
:10089000292F30E08F5F80938106C9010895282FAA
:1008A00080918407E3E8F7E0E80FF11D22838F5F72
:1008B00080938407E1ECF0E08081806280833327BD
:1008C00027FD3095C9010895BC0120E030E00CC03F
:1008D00080918407E82FF0E0ED57F84F42838F5F57
:1008E000809384072F5F3F4FFB01E20FF31F40818E
:1008F000442371F78091C10080628093C100C901D7
:100900000895AC0120E030E010C080918407E82F0A
:10091000F0E0DA01A20FB31F9C91ED57F84F9283DC
:100920008F5F809384072F5F3F4F261737076CF345
:100930008091C10080628093C100C90108951F9217
:100940000F920FB60F920BB60F9211242F933F9375
:100950004F935F936F937F938F939F93AF93BF93C7
:10096000EF93FF93E0918508F0918608309709F0A6
:100970001995FF91EF91BF91AF919F918F917F91C9
:100980006F915F914F913F912F910F900BBE0F9000
:100990000FBE0F901F9018951F920F920FB60F92D7
:1009A000112474980F900FBE0F901F90189582E03D
:1009B0008093810080936F006C9A88EB9BE090930A
:1009C0008900809388000895909386088093850815
:1009D000892B21F080916F00816003C080916F00AE
:1009E0008E7F80936F000895DC0113968C9113978E
:1009F000482F50E04E5F5F4F90E022E030E0FD0175
:100A0000E20FF31F8081980F2F5F3F4F421753076C
:100A1000B4F7892F809508951F93DC01162F57FF97
:100A200002C040E050E0FD01E40FF51F10834230AA
:100A3000510514F41F3FC9F413968C911397282F76
:100A400030E02D5F3F4F4217530741F4CD010E9424
:100A5000F404181751F42FEF3FEF09C0241735079E
:100A600024F09A012F5F3F4F02C020E030E0C9011F
:100A70001F910895CF93DF939FEF90937D03909301
:100A80007E0380937F032E5F209380032250609328
:100A90008103842F952FDC01E2E8F3E0C22FD0E040
:100AA0009E012E0F3F1F02C08D918193E217F30725
:100AB000D9F78DE793E00E94F40480937C04C35837
:100AC000DC4F8D838DE793E0DF91CF9108958EEF1A
:100AD00065E040E050E020E00E943A05089561E0C2
:100AE00040E050E020E00E943A05089566E040E0D2
:100AF00050E020E00E943A050895CF93DF939FEFE6
:100B000090937D0290937E0280937F022E5F2093CC
:100B10008002225060938102842F952FDC01E2E84D
:100B2000F2E0C22FD0E09E012E0F3F1F02C08D9138
:100B30008193E217F307D9F78DE792E00E94F4045E
:100B400080937C03C358DD4F8D838DE792E0DF9166
:100B5000CF910895EF92FF920F931F93DF93CF935E
:100B6000CDB7DEB78A01EDB6FEB6922F9E5F4DB7C8
:100B70005EB7491B51090FB6F8945EBF0FBE4DBF5B
:100B80004F5F5F4FEDB7FEB78183FA016183DA01F2
:100B900060E070E030E009C0F801E60FF71F8081E7
:100BA00011968C9311976F5F7F4F119662177307A1
:100BB0009CF38EEF63E8292F0E943A050FB6F89454
:100BC000FEBE0FBEEDBECF91DF911F910F91FF9042
:100BD000EF900895DF92EF92FF920F931F93DF93B0
:100BE000CF93CDB7DEB7D82EEDB6FEB6722F7F5FAE
:100BF0008DB79EB7871B91090FB6F8949EBF0FBEA5
:100C00008DBF0DB71EB70F5F1F4FEDB7FEB76183E6
:100C1000842F952FDC0140E050E030E007C04F5FAB
:100C20005F4FF801E40FF51F8D9180834217530742
:100C3000B4F38D2D64E0A801272F0E943A050FB66A
:100C4000F894FEBE0FBEEDBECF91DF911F910F91C4
:100C5000FF90EF90DF900895DF92EF92FF920F9355
:100C60001F93DF93CF93CDB7DEB7D82EEDB6FEB688
:100C7000722F7F5F8DB79EB7871B91090FB6F894CF
:100C80009EBF0FBE8DBF0DB71EB70F5F1F4FEDB7D5
:100C9000FEB76183842F952FDC0140E050E030E007
:100CA00007C04F5F5F4FF801E40FF51F8D91808300
:100CB00042175307B4F38D2D63E0A801272F0E943C
:100CC0003A050FB6F894FEBE0FBEEDBECF91DF9190
:100CD0001F910F91FF90EF90DF9008950F931F9356
:100CE000DF93CF93CDB7DEB70DB71EB70F920F923C
:100CF000EDB7FEB73196ADB7BEB711966C93418391
:100D000062E0AF0122E00E943A050FB6F8941EBFE0
:100D10000FBE0DBFCF91DF911F910F910895EAE7AC
:100D2000F0E087E0808380E480937C008081806CA9
:100D30008083089590917C00907E982B90937C0006
:100D400080917A00806480937A0080917A0086FD99
:100D5000FCCF2091780030917900C901089510925C
:100D600088081092870881E08093890880E8809342
:100D70008A0810928E0888E18093A70880E090E0AE
:100D8000FC01E957F74F81A3019688319105C1F71E
:100D900084E28093C00882E08093C108089508959A
:100DA000A1E21A2EAA1BBB1BFD010DC0AA1FBB1F6F
:100DB000EE1FFF1FA217B307E407F50720F0A21BE1
:100DC000B30BE40BF50B661F771F881F991F1A944E
:100DD00069F760957095809590959B01AC01BD0178
:100DE000CF01089597FB092E05260ED057FD04D09C
:100DF000D7DF0AD0001C38F45095409530952195E6
:100E00003F4F4F4F5F4F0895F6F79095809570953F
:100E100061957F4F8F4F9F4F08950F931F93DF93DF
:100E2000CF93CDB7DEB72E970FB6F894DEBF0FBEC7
:100E3000CDBF8C0177FF02C060E070E86150704068
:100E40007E836D831A83098386E08C83CE010196AD
:100E5000BA01A9010E9444072D813E8137FD09C0D6
:100E6000EF81F8852E173F070CF4F901E00FF11F11
:100E700010822E960FB6F894DEBF0FBECDBFCF9175
:100E8000DF911F910F9108952F923F924F925F92A1
:100E90006F927F928F929F92AF92BF92CF92DF928A
:100EA000EF92FF920F931F93DF93CF93CDB7DEB7EF
:100EB0002B970FB6F894DEBF0FBECDBF3C012B01C0
:100EC0005A01FC0117821682838181FD03C06FEFF6
:100ED0007FEFC6C19AE0892E1E010894211C311CA7
:100EE000F3012381F20123FD859123FF81912F01DD
:100EF000882309F4B2C1853239F423FD859123FF9B
:100F000081912F01853229F490E0B3010E9460099C
:100F1000E7CF982FFF24EE249924FFE1FF15D0F0AE
:100F20009B3269F09C3228F4903259F0933291F45C
:100F30000EC09D3249F0903369F441E024C052E084
:100F4000F52A84E0F82A28C098E0F92A25C0E0E1D3
:100F5000FE2A22C0F7FC29C0892F80538A3070F402
:100F6000F6FE05C0989C902C1124980E15C0E89CA4
:100F7000E02C1124E80EF0E2FF2A0EC09E3229F484
:100F8000F6FC6BC140E4F42A07C09C3619F450E823
:100F9000F52A02C0983649F4F20123FD959123FF0A
:100FA00091912F01992309F0B8CF892F855483306F
:100FB00018F08052833038F444E050E0A40EB51E9F
:100FC0005FE359830FC0933631F0933779F093354F
:100FD00009F056C020C0F5018081898342E050E0CD
:100FE000A40EB51E610101E010E012C0F501C08041
:100FF000D180F6FC03C06FEF7FEF02C0692D70E077
:1010000042E050E0A40EB51EC6010E9455098C01B5
:101010005FE7F52214C0F501C080D180F6FC03C063
:101020006FEF7FEF02C0692D70E042E050E0A40E48
:10103000B51EC6010E944A098C0150E8F52AF3FE4C
:1010400007C01AC080E290E0B3010E946009EA94F0
:101050008E2D90E008171907A8F30EC0F601F7FCD3
:101060008591F7FE81916F0190E0B3010E946009C4
:10107000E110EA94015010400115110579F7EAC01A
:10108000943611F0993669F5F7FE08C0F501208114
:1010900031814281538184E090E00AC0F501808172
:1010A00091819C01442737FD4095542F82E090E0C8
:1010B000A80EB91E9FE6F92257FF09C0509540952A
:1010C000309521953F4F4F4F5F4FE0E8FE2ACA0110
:1010D000B901A1012AE030E00E948C09D82ED21873
:1010E00040C0953729F41F2D1F7E2AE030E01DC037
:1010F0001F2D197F9F3661F0903720F4983509F045
:10110000ACC00FC0903739F0983709F0A6C004C0C2
:1011100028E030E00AC0106114FD146020E130E0E6
:1011200004C014FD166020E132E017FF08C0F5018D
:10113000608171818281938144E050E008C0F501B3
:1011400080819181BC0180E090E042E050E0A40EFB
:10115000B51EA1010E948C09D82ED2188FE7F82E57
:10116000F122F6FE0BC05EEFF522D91438F4F4FE3E
:1011700007C0F2FC05C08FEEF82202C01D2D01C091
:10118000192DF4FE0DC0FE01ED0DF11D808180339F
:1011900019F499EEF92208C01F5FF2FE05C003C0E2
:1011A0008F2D867809F01F5F0F2DF3FC14C0F0FE21
:1011B0000FC01E1510F09D2C0BC09D2C9E0C911A7B
:1011C0001E2D06C080E290E0B3010E9460091F5FFF
:1011D0001E15C0F304C01E1510F4E11A01C0EE2460
:1011E00004FF0FC080E390E0B3010E94600902FF9A
:1011F0001DC001FD03C088E790E00EC088E590E0C7
:101200000BC0802F867891F001FF02C08BE201C0F5
:1012100080E2F7FC8DE290E0B3010E94600906C015
:1012200080E390E0B3010E9460099A94D914C0F35E
:10123000DA94F101ED0DF11D808190E0B3010E947F
:101240006009DD20A9F706C080E290E0B3010E94AA
:101250006009EA94EE20C1F743CEF30166817781FD
:10126000CB012B960FB6F894DEBF0FBECDBFCF914A
:10127000DF911F910F91FF90EF90DF90CF90BF9083
:10128000AF909F908F907F906F905F904F903F9026
:101290002F900895FC010590615070400110D8F71F
:1012A000809590958E0F9F1F0895FC0161507040AE
:1012B00001900110D8F7809590958E0F9F1F08958B
:1012C0000F931F93CF93DF938C01EB018B8181FFF1
:1012D0001BC082FF0DC02E813F818C819D8128170C
:1012E000390764F4E881F9810193F983E88306C042
:1012F000E885F985802F1995892B31F48E819F819E
:1013000001969F838E8302C00FEF1FEFC801DF910C
:10131000CF911F910F910895FA01AA27283051F11A
:10132000203181F1E8946F936E7F6E5F7F4F8F4F16
:101330009F4FAF4FB1E03ED0B4E03CD0670F781F75
:10134000891F9A1FA11D680F791F8A1F911DA11D5A
:101350006A0F711D811D911DA11D20D009F4689493
:101360003F912AE0269F11243019305D3193DEF63B
:10137000CF010895462F4770405D4193B3E00FD0F1
:10138000C9F7F6CF462F4F70405D4A3318F0495DDC
:1013900031FD4052419302D0A9F7EACFB4E0A695BF
:1013A0009795879577956795BA95C9F700976105E1
:1013B000710508959B01AC010A2E06945795479537
:1013C00037952795BA95C9F7620F731F841F951F2C
:0813D000A01D0895F894FFCF61
:1013D800FFFFFE04031900E100FFFFFE04031901EB
:1013E800E0000D0A5374617274696E6720434D37CB
:1013F80030302044796E616D6978656C2072656C57
:1014080061792070726F6772616D0D0A0053776998
:10141800746368696E6720746F2031303030303003
:101428003020626175642E2E2E0D0A0052756E6E84
:10143800696E67206174203130303030303020627E
:081448006175640D0A008708BC
:00000001FF
